:020000040800F2
:1000000000C00020DD6800086D67000879670008FF
:100010007F670008856700088B6700080000000004
:1000200000000000000000000000000091670008D0
:100030009D67000800000000A9670008B567000878
:100040002569000825690008256900082569000858
:100050002569000825690008256900082569000848
:100060002569000825690008256900082569000838
:100070002569000825690008256900082569000828
:100080002569000825690008256900082569000818
:100090002569000825690008256900082569000808
:1000A00025690008256900082569000825690008F8
:1000B00025690008256900082569000825690008E8
:1000C00025690008256900082569000825690008D8
:1000D00025690008C167000825690008256900082E
:1000E00025690008256900082569000825690008B8
:1000F00025690008256900082569000825690008A8
:100100002569000825690008256900082569000897
:100110002569000825690008256900082569000887
:100120002569000825690008256900082569000877
:1001300000000000000000000000000000000000BF
:1001400000000000000000000000000000000000AF
:10015000000000000000000000000000000000009F
:10016000000000000000000000000000000000008F
:10017000000000000000000000000000000000007F
:10018000000000000000000000000000000000006F
:10019000000000000000000000000000000000005F
:1001A000000000000000000000000000000000004F
:1001B000000000000000000000000000000000003F
:1001C000000000000000000000000000000000002F
:1001D000000000000000000000000000000000001F
:0401E0005FF8E0F1F3
:1001E80010B5054C237833B9044B13B10448AFF369
:1001F80000800123237010BD2800002000000000AB
:100208003480000808B5034B1BB103490348AFF31A
:10021800008008BD000000002C0000203480000889
:10022800034613F8012B002AFBD1181A013870472E
:1002380070B54FF0FF0C4CF4E06C1CEA11541DBF74
:100248001CEA135594EA0C0F95EA0C0F00F0DEF83F
:100258002C4481EA030621EA4C5123EA4C5350EA24
:10026800013518BF52EA033541F4801143F4801375
:1002780038D0A0FB02CE4FF00005E1FB02E506F006
:100288000042E0FB03E54FF00006E1FB03569CF05B
:10029800000F18BF4EF0010EA4F1FF04B6F5007F61
:1002A80064F5407404D25FEA4E0E6D4146EB0606D3
:1002B80042EAC62141EA55514FEAC52040EA5E505C
:1002C8004FEACE2EB4F1FD0C88BFBCF5E06F1ED806
:1002D800BEF1004F08BF5FEA500E50F1000041EB3D
:1002E800045170BD06F0004646EA010140EA0200EA
:1002F80081EA0301B4EB5C04C2BFD4EB0C0541EA0C
:10030800045170BD41F480114FF0000E013C00F320
:10031800AB8014F1360FDEBF002001F0004170BD44
:10032800C4F10004203C35DA0C341BDC04F114045D
:10033800C4F1200500FA05F320FA04F001FA05F2E9
:1003480040EA020001F0004221F0004110EBD370B6
:1003580021FA04F642EB06015EEA430E08BF20EAE2
:10036800D37070BDC4F10C04C4F1200500FA04F385
:1003780020FA05F001FA04F240EA020001F0004117
:1003880010EBD37041F100015EEA430E08BF20EA8A
:10039800D37070BDC4F1200500FA05F24EEA020ED2
:1003A80020FA04F301FA05F243EA020321FA04F001
:1003B80001F0004121FA04F220EA020000EBD370B8
:1003C8005EEA430E08BF20EAD37070BD94F0000FB8
:1003D8000FD101F00046400041EB010111F4801FEC
:1003E80008BF013CF7D041EA060195F0000F18BF9D
:1003F800704703F00046520043EB030313F4801FD9
:1004080008BF013DF7D043EA0603704794EA0C0F92
:100418000CEA135518BF95EA0C0F0CD050EA4106A8
:1004280018BF52EA4306D1D181EA030101F0004125
:100438004FF0000070BD50EA410606BF104619464D
:1004480052EA430619D094EA0C0F02D150EA013659
:1004580013D195EA0C0F05D152EA03361CBF10469A
:1004680019460AD181EA030101F0004141F0FE4139
:1004780041F470014FF0000070BD41F0FE4141F4BD
:10048800780170BD81F0004102E000BF83F00043B5
:1004980030B54FEA41044FEA430594EA050F08BF17
:1004A80090EA020F1FBF54EA000C55EA020C7FEADB
:1004B800645C7FEA655C00F0E2804FEA5454D4EB58
:1004C8005555B8BF6D420CDD2C4480EA020281EA22
:1004D800030382EA000083EA010180EA020281EA5A
:1004E8000303362D88BF30BD11F0004F4FEA0131AC
:1004F8004FF4801C4CEA113102D0404261EB4101BB
:1005080013F0004F4FEA03334CEA133302D0524240
:1005180063EB430394EA050F00F0A780A4F10104FC
:10052800D5F1200E0DDB02FA0EFC22FA05F2801836
:1005380041F1000103FA0EF2801843FA05F359411C
:100548000EE0A5F120050EF1200E012A03FA0EFC9B
:1005580028BF4CF0020C43FA05F3C01851EBE371C5
:1005680001F0004507D54FF0000EDCF1000C7EEBE2
:1005780000006EEB0101B1F5801F1BD3B1F5001F20
:100588000CD349085FEA30004FEA3C0C04F101043F
:100598004FEA445212F5800F80F09A80BCF1004F68
:1005A80008BF5FEA500C50F1000041EB045141EAEA
:1005B800050130BD5FEA4C0C404141EB0101013CB3
:1005C80028BFB1F5801FE9D291F0000F04BF0146A2
:1005D8000020B1FA81F308BF2033A3F10B03B3F174
:1005E80020020CDA0C3208DD02F1140CC2F10C0204
:1005F80001FA0CF021FA02F10CE002F11402D8BF62
:10060800C2F1200C01FA02F120FA0CFCDCBF41EA2D
:100618000C019040E41AA2BF01EB0451294330BDFC
:100628006FEA04041F3C1CDA0C340EDC04F11404D9
:10063800C4F1200220FA04F001FA02F340EA0300B0
:1006480021FA04F345EA030130BDC4F10C04C4F1F6
:10065800200220FA02F001FA04F340EA03002946D6
:1006680030BD21FA04F0294630BD94F0000F83F420
:10067800801306BF81F480110134013D4EE77FEA03
:10068800645C18BF7FEA655C29D094EA050F08BF4F
:1006980090EA020F05D054EA000C04BF1946104630
:1006A80030BD91EA030F1EBF0021002030BD5FEA74
:1006B800545C05D14000494128BF41F0004130BD9C
:1006C80014F580043CBF01F5801130BD01F00045F0
:1006D80045F0FE4141F470014FF0000030BD7FEA63
:1006E800645C1ABF194610467FEA655C1CBF0B465E
:1006F800024650EA013406BF52EA033591EA030F75
:1007080041F4002130BD00BF90F0000F04BF00216C
:10071800704730B54FF4806404F132044FF000059F
:100728004FF0000150E700BF90F0000F04BF002118
:10073800704730B54FF4806404F1320410F000457E
:1007480048BF40424FF000013EE700BF42004FEA79
:10075800E2014FEA31014FEA02701FBF12F07F43F6
:1007680093F07F4F81F06051704732F07F4208BFAD
:10077800704793F07F4F04BF41F40021704730B5B4
:100788004FF4607401F0004521F000411CE700BF00
:1007980050EA010208BF704730B54FF000050AE083
:1007A80050EA010208BF704730B511F0004502D584
:1007B800404261EB41014FF4806404F132045FEA86
:1007C800915C3FF4D8AE4FF003025FEADC0C18BF2F
:1007D80003325FEADC0C18BF033202EBDC02C2F121
:1007E800200300FA03FC20FA02F001FA03FE40EAB3
:1007F8000E0021FA02F11444BDE600BF4A0011D2EE
:1008080012F5001211D20DD56FF47873B3EB625262
:100818000ED44FEAC12343F0004343EA505323FA6E
:1008280002F070474FF00000704750EA013002D1E3
:100838004FF0FF3070474FF00000704780B483B02E
:1008480000AF0E4B9B690D4A43F0200393610B4B9D
:100858009B6903F020037B607B68084B9B69074A10
:1008680043F004039361054B9B6903F004033B6069
:100878003B6800BF0C37BD4680BC70470010024083
:1008880080B483B000AF0346FB800D4B4FF48072F9
:100898005A610B4B4FF400725A610A4AFB88D360C5
:1008A800074B80225A61064B80221A61044B4FF491
:1008B80000721A6100BF0C37BD4680BC704700BF8C
:1008C80000100140000C014080B483B000AF034623
:1008D800FB800D4B4FF480721A610B4B4FF4007282
:1008E8005A610A4AFB88D360074B80225A61064B3B
:1008F80080221A61044B4FF400721A6100BF0C3752
:10090800BD4680BC704700BF00100140000C01408C
:1009180080B582B000AF1D4B4FF088321A601B4B78
:100928004FF088325A60194B0022DA60184B4FF4A6
:1009380080721A61164B4FF400725A61144B4022B0
:100948005A61144B9B8848F68912934202D10120C0
:1009580006F048F80D4B9B68FB800D4B40221A614E
:100968000B4B4FF400721A61084B4FF033321A6088
:10097800064B4FF033325A60044B4FF6FF72DA6081
:10098800FB8818460837BD4680BD00BF000C0140F3
:10099800001001404C00002080B582B000AF034633
:1009A8000A46FB801346BB80FB881846FFF768FFA2
:1009B8000C4B4FF480721A610A4B4FF400725A6163
:1009C800094ABB88D360074B80225A61054B8022B5
:1009D8001A61044B4FF400721A6100BF0837BD4614
:1009E80080BD00BF00100140000C014080B582B0FE
:1009F80000AF0346FB80FB881846FFF741FFFFF76F
:100A080087FF034618460837BD4680BD80B500AF4E
:100A1800034B1B891846FFF733FF00BF80BD00BF9B
:100A28004C00002080B582B000AF03460A46FB8028
:100A38001346BB80734B9B8849F24132934205D0E1
:100A4800704B9B8845F21032934264D16D4B5B89A1
:100A58001846FFF715FF6C4B4FF480721A616A4B0A
:100A68004FF400725A61FB881B0A9AB2674BDA602E
:100A7800654B80225A61644B80221A61624B4FF4A5
:100A880000721A61604B4FF480721A615E4B4FF42A
:100A980000725A61FB885D4ADBB2D3605A4B8022F0
:100AA8005A61594B80221A61574B4FF400721A61F0
:100AB800544B9B891846FFF7E3FE534B4FF4807263
:100AC8001A61514B4FF400725A61BB881B0A9AB2E3
:100AD8004E4BDA604C4B80225A614B4B80221A6194
:100AE800494B4FF400721A61474B4FF480721A61F8
:100AF800454B4FF400725A61BB88444ADBB2D3605D
:100B0800414B80225A61404B80221A613E4B4FF480
:100B180000721A6148E23B4B9B8846F604029342F6
:100B280076D1384B9B79012B06D1364B1A88FB8836
:100B3800D31A9BB2013BFB80324B5B891846FFF707
:100B48009FFE314B4FF480721A612F4B4FF40072A5
:100B58005A61FB881B0A9AB22C4BDA602A4B802216
:100B68005A61294B80221A61274B4FF400721A618F
:100B7800254B4FF480721A61234B4FF400725A616F
:100B8800FB88224ADBB2D3601F4B80225A611E4B7E
:100B980080221A611C4B4FF400721A61194B9B8911
:100BA8001846FFF76DFE184B4FF480721A61164B0A
:100BB8004FF400725A61BB881B0A9AB2134BDA6071
:100BC800114B80225A61104B80221A610E4B4FF450
:100BD80000721A610C4B4FF480721A610A4B4FF481
:100BE80000725A61BB88094ADBB2D360064B802287
:100BF8005A61054B80221A61034B4FF400721A6147
:100C0800D2E100BF4C00002000100140000C014060
:100C1800994B9B8841F66312934240F03381964B7F
:100C28009B79002B63D1944B1A88FB88D31A9BB20B
:100C3800013BFB80904B5B891846FFF721FE8F4BE9
:100C48004FF480721A618D4B4FF400725A618C4BCD
:100C58000022DA60894B80225A61884B80221A610F
:100C6800864B4FF400721A61844B4FF480721A61FC
:100C7800824B4FF400725A61814B0022DA607F4B3D
:100C880080225A617D4B80221A617C4B4FF400729E
:100C98001A617A4B4FF480721A61784B4FF40072E4
:100CA8005A61FB881B0A9AB2754BDA60734B802233
:100CB8005A61724B80221A61704B4FF400721A61AC
:100CC8006E4B4FF480721A616C4B4FF400725A618C
:100CD800FB886B4ADBB2D360684B80225A61674B52
:100CE80080221A61654B4FF400721A6161E0624B11
:100CF8005B891846FFF7C4FD604B4FF480721A6198
:100D08005E4B4FF400725A61FB881B0A9AB25C4B27
:100D1800DA605A4B80225A61584B80221A61574B2D
:100D28004FF400721A61554B4FF480721A61534B9D
:100D38004FF400725A61FB88514ADBB2D3604F4BC3
:100D480080225A614D4B80221A614C4B4FF400723D
:100D58001A614A4B4FF480721A61484B4FF4007283
:100D68005A61454B1B88013B1A12454BDA60434BCD
:100D780080225A61414B80221A61404B4FF4007225
:100D88001A613E4B4FF480721A613C4B4FF400726B
:100D98005A61394B1B88013B394ADBB2D360374B68
:100DA80080225A61354B80221A61344B4FF400720D
:100DB8001A61314B9B891846FFF762FD2F4B4FF4A0
:100DC80080721A612D4B4FF400725A61BB881B0A5E
:100DD8009AB22B4BDA60294B80225A61274B80222A
:100DE8001A61264B4FF400721A61244B4FF480723B
:100DF8001A61224B4FF400725A61BB88204ADBB259
:100E0800D3601E4B80225A611C4B80221A611B4BF7
:100E18004FF400721A61194B4FF480721A61174B24
:100E28004FF400725A61144B5B88013B1A12144B41
:100E3800DA60124B80225A61104B80221A610F4BE4
:100E48004FF400721A610D4B4FF480721A610B4B0C
:100E58004FF400725A61084B5B88013B084ADBB2C9
:100E6800D360064B80225A61044B80221A61034BDF
:100E78004FF400721A6197E04C0000200010014006
:100E8800000C01404A4B9B8845F21052934272D1A4
:100E9800474B5B891846FFF7F3FC464B4FF48072CB
:100EA8001A61444B4FF400725A61FB881B0A9AB2CC
:100EB800414BDA603F4B80225A613E4B80221A61D7
:100EC8003C4B4FF400721A61394B5B8901339BB27A
:100ED8001846FFF7D5FC374B4FF480721A61354B33
:100EE8004FF400725A61FB88334ADBB2D360314B4E
:100EF80080225A612F4B80221A612E4B4FF40072C8
:100F08001A612B4B9B891846FFF7BAFC294B4FF403
:100F180080721A61274B4FF400725A61BB881B0A12
:100F28009AB2254BDA60234B80225A61214B8022EA
:100F38001A61204B4FF400721A611D4B9B890133D3
:100F48009BB21846FFF79CFC1A4B4FF480721A614B
:100F5800184B4FF400725A61BB88174ADBB2D36052
:100F6800144B80225A61134B80221A61114B4FF4A3
:100F780000721A6118E00E4B9B79012B06D10C4BBD
:100F88001A88FB88D31A9BB2013BFB80084B5B890C
:100F9800FA8811461846FFF7FFFC054B9B89BA886B
:100FA80011461846FFF7F8FC00BF0837BD4680BD5C
:100FB8004C00002000100140000C014080B584B0B6
:100FC80000AF0346FB710023FB810023BB81784BF4
:100FD8009B79012B0BD1764B9B8846F604029342F2
:100FE80005D0734B9B8841F66312934209D1704B2D
:100FF8009B79002B34D16E4B9B8841F66312934248
:101008002ED1FB79072B2CD801A252F823F000BF70
:10101800391000083F100008451000084B10000860
:1010280051100008571000085D10000863100008F0
:101038000623FB7115E00723FB7112E00423FB7103
:101048000FE00523FB710CE00123FB7109E000238D
:10105800FB7106E00323FB7103E00223FB7100E050
:1010680000BF534B9B8849F24132934218D0504BF2
:101078009B8846F60402934212D04D4B9B8845F25A
:10108800103293420CD04A4B9B8845F2105293423F
:1010980006D0474B9B8841F66312934240F04F823B
:1010A800FB79072B35D801A252F823F01B11000851
:1010B800D5100008DF100008E9100008F310000838
:1010C800FD1000080711000811110008FB8943F002
:1010D8008003FB811DE0FB8943F04003FB8118E09E
:1010E800FB8943F0C003FB8113E0FB8943F0200335
:1010F800FB810EE0FB8943F06003FB8109E0FB897B
:1011080043F0A003FB8104E0FB8943F0E003FB818B
:1011180000BF274B9B8845F21052934203D14FF4EE
:101128005853BB8101E03623BB81214B9B8845F294
:10113800103293420FD01E4B9B8845F210529342B7
:1011480009D01B4B9B8841F66312934203D0FB895D
:1011580043F00803FB81164B9B8846F60402934232
:1011680003D1FB8943F00203FB81FA89BB8911464D
:101178001846FFF711FC0E4B9B8841F66312934209
:1011880028D0FB8903F02003002B13D0084B1A88C2
:10119800074B5B889A421DD2054B1B887B81044B09
:1011A8005A88034B1A80024A7B89538012E000BF99
:1011B8004C0000207F4B1A887E4B5B889A4209D9E5
:1011C8007C4B1B887B817B4B5A887A4B1A80794AE7
:1011D8007B895380774B9B8845F21052934240F0AD
:1011E800EF80744B5B891846FFF74AFB724B4FF44C
:1011F80080721A61704B4FF400725A616F4B002273
:10120800DA606D4B80225A616B4B80221A616A4BFF
:101218004FF400721A61674B5B8901339BB2184621
:10122800FFF72EFB644B4FF480721A61624B4FF448
:1012380000725A61614B0022DA605F4B80225A616A
:101248005D4B80221A615C4B4FF400721A61594B56
:101258005B8902339BB21846FFF712FB564B4FF4DB
:1012680080721A61544B4FF400725A61514B1B88BB
:10127800013B1A12514BDA604F4B80225A614E4B98
:1012880080221A614C4B4FF400721A61494B5B89FA
:1012980003339BB21846FFF7F3FA474B4FF48072BB
:1012A8001A61454B4FF400725A61424B1B88013B4F
:1012B800424ADBB2D360404B80225A613E4B8022C7
:1012C8001A613D4B4FF400721A613A4B9B891846DC
:1012D800FFF7D6FA384B4FF480721A61364B4FF449
:1012E80000725A61354B0022DA60334B80225A6112
:1012F800314B80221A61304B4FF400721A612D4B2A
:101308009B8901339BB21846FFF7BAFA2A4B4FF470
:1013180080721A61284B4FF400725A61274B0022E1
:10132800DA60254B80225A61234B80221A61224BB6
:101338004FF400721A611F4B9B8902339BB2184607
:10134800FFF79EFA1C4B4FF480721A611A4B4FF448
:1013580000725A61174B5B88013B1A12174BDA600F
:10136800154B80225A61144B80221A61124B4FF49C
:1013780000721A610F4B9B8903339BB21846FFF723
:101388007FFA0D4B4FF480721A610B4B4FF40072C9
:101398005A61084B5B88013B084ADBB2D360064BB5
:1013A80080225A61044B80221A61034B4FF4007269
:1013B8001A610BE14C00002000100140000C0140B4
:1013C800844B5B891846FFF75BFA834B4FF48072B6
:1013D8001A61814B4FF400725A61804B0022DA6027
:1013E8007D4B80225A617C4B80221A617A4B4FF4E4
:1013F80000721A61784B4FF480721A61764B4FF481
:1014080000725A61754B0022DA60734B80225A6170
:10141800714B80221A61704B4FF400721A616E4B47
:101428004FF480721A616C4B4FF400725A61694B29
:101438001B88013B1A12694BDA60674B80225A619C
:10144800654B80221A61644B4FF400721A61624B3B
:101458004FF480721A61604B4FF400725A615D4B11
:101468001B88013B5D4ADBB2D3605B4B80225A612B
:10147800594B80221A61584B4FF400721A61554B30
:101488009B891846FFF7FCF9534B4FF480721A6199
:10149800514B4FF400725A61504B0022DA604E4BA8
:1014A80080225A614C4B80221A614B4B4FF40072D8
:1014B8001A61494B4FF480721A61474B4FF400721E
:1014C8005A61464B0022DA60434B80225A61424BF4
:1014D80080221A61404B4FF400721A613E4B4FF460
:1014E80080721A613C4B4FF400725A61394B5B8829
:1014F800013B1A12394BDA60374B80225A61364B5E
:1015080080221A61344B4FF400721A61324B4FF447
:1015180080721A61304B4FF400725A612D4B5B8810
:10152800013B2E4ADBB2D3602B4B80225A612A4BF7
:1015380080221A61284B4FF400721A6146E0FB7949
:10154800072B36D801A252F823F000BF7515000802
:101558007F15000889150008BB15000893150008B9
:101568009D150008A7150008B1150008FB8943F070
:101578003003FB811DE0FB8943F01003FB8118E079
:10158800FB8943F02003FB8113E0FB8943F0380318
:10159800FB810EE0FB8943F02803FB8109E0FB890E
:1015A80043F01803FB8104E0FB8943F00803FB8147
:1015B80000BF0323BB81FB8943F48053FB81FA8975
:1015C800BB8911461846FFF7E7F900BF00BF10377F
:1015D800BD4680BD4C00002000100140000C0140B9
:1015E80080B582B000AF03460A46FB801346BB8035
:1015F800BA88FB8811461846FFF714FAFFF706FA6F
:101608000C4B4FF480721A610A4B4FF400725A6106
:10161800094B1A88094BDA60064B80225A61054B40
:1016280080221A61034B4FF400721A6100BF083719
:10163800BD4680BD0010014044000020000C014060
:1016480080B582B000AF0346FB800B46BB801346D3
:101658007B80754B9B8849F24132934205D0724B8F
:101668009B8845F21032934264D16F4B5B891846D0
:10167800FFF706F96D4B4FF480721A616B4B4FF40C
:1016880000725A61FB881B0A9AB2694BDA60674B91
:1016980080225A61654B80221A61644B4FF40072B4
:1016A8001A61624B4FF480721A61604B4FF40072FA
:1016B8005A61FB885E4ADBB2D3605C4B80225A6178
:1016C8005A4B80221A61594B4FF400721A61564BDB
:1016D8009B891846FFF7D4F8544B4FF480721A616F
:1016E800524B4FF400725A61BB881B0A9AB2504B96
:1016F800DA604E4B80225A614C4B80221A614B4B68
:101708004FF400721A61494B4FF480721A61474BCB
:101718004FF400725A61BB88454ADBB2D360434B31
:1017280080225A61414B80221A61404B4FF400726B
:101738001A61E6E13C4B9B8845F21052934279D1FD
:10174800394B5B891846FFF79BF8384B4FF480728A
:101758001A61364B4FF400725A61FB881B0A9AB221
:10176800334BDA60314B80225A61304B80221A6148
:101778002E4B4FF400721A612B4B5B8901339BB2DD
:101788001846FFF77DF8294B4FF480721A61274BF2
:101798004FF400725A61FB88254ADBB2D360234BB1
:1017A80080225A61214B80221A61204B4FF400722B
:1017B8001A611D4B9B891846FFF762F81B4B4FF4C3
:1017C80080721A61194B4FF400725A61BB881B0A68
:1017D8009AB2174BDA60154B80225A61134B80225C
:1017E8001A61124B4FF400721A610F4B9B89013337
:1017F8009BB21846FFF744F80C4B4FF480721A61FD
:101808000A4B4FF400725A61BB88094ADBB2D360B5
:10181800064B80225A61054B80221A61034B4FF414
:1018280000721A616DE100BF4C00002000100140F9
:10183800000C0140684B9B8841F66312934240F0CC
:10184800D180654B9B79002B06D1634B1A88FB88A6
:10185800D31A9BB2013BFB805F4B5B891846FFF7AD
:101868000FF85E4B4FF480721A615C4B4FF40072B4
:101878005A61FB881B0A9AB2594BDA60574B80228F
:101888005A61564B80221A61544B4FF400721A6108
:10189800524B4FF480721A61504B4FF400725A61E8
:1018A800FB884F4ADBB2D3604C4B80225A614B4BCA
:1018B80080221A61494B4FF400721A61474B4FF46A
:1018C80080721A61454B4FF400725A61FB881B0AFB
:1018D8009AB2434BDA60414B80225A613F4B8022D7
:1018E8001A613E4B4FF400721A613C4B4FF4807200
:1018F8001A613A4B4FF400725A61FB88384ADBB2DE
:10190800D360364B80225A61344B80221A61334BA4
:101918004FF400721A61304B9B891846FEF7B0FFEE
:101928002E4B4FF480721A612C4B4FF400725A619F
:10193800BB881B0A9AB22A4BDA60284B80225A616C
:10194800264B80221A61254B4FF400721A61234BF3
:101958004FF480721A61214B4FF400725A61BB88B0
:101968001F4ADBB2D3601D4B80225A611B4B802279
:101978001A611A4B4FF400721A61184B4FF48072B7
:101988001A61164B4FF400725A61BB881B0A9AB24F
:10199800134BDA60114B80225A61104B80221A6176
:1019A8000E4B4FF400721A610C4B4FF480721A619F
:1019B8000A4B4FF400725A61BB88094ADBB2D36004
:1019C800064B80225A61054B80221A61034B4FF463
:1019D80000721A6195E000BF4C0000200010014021
:1019E800000C01405E4B9B8846F6040293426FD17F
:1019F8005B4B9B79012B06D1594B1A88FB88D31A6C
:101A08009BB2013BFB80564B5B891846FEF738FFBB
:101A1800544B4FF480721A61524B4FF400725A6162
:101A2800FB881B0A9AB2504BDA604E4B80225A61EF
:101A38004C4B80221A614B4B4FF400721A61494B90
:101A48004FF480721A61474B4FF400725A61FB8859
:101A5800454ADBB2D360434B80225A61414B802216
:101A68001A61404B4FF400721A613D4B9B8918462E
:101A7800FEF706FF3B4B4FF480721A61394B4FF467
:101A880000725A61BB881B0A9AB2374BDA60354B31
:101A980080225A61334B80221A61324B4FF4007214
:101AA8001A61304B4FF480721A612E4B4FF400725A
:101AB8005A61BB882C4ADBB2D3602A4B80225A6118
:101AC800284B80221A61274B4FF400721A6118E0E4
:101AD800234B9B79012B06D1214B1A88FB88D31AFB
:101AE8009BB2013BFB801E4B5B89FA881146184666
:101AF800FEF752FF1A4B9B89BA8811461846FEF723
:101B08004BFF184B4FF480725A61164B4FF400721A
:101B18005A61134B1A89144BDA60124B80225A61AE
:101B2800104B80221A610F4B4FF400721A610D4B53
:101B38004FF480721A610B4B4FF400725A610A4AD3
:101B48007B88D360074B80225A61064B80221A613A
:101B5800044B4FF400721A6100BF0837BD4680BDC0
:101B68004C00002000100140000C01400000000063
:101B780090B583B000AF0346FB71BE20FEF780FE30
:101B88004B4B4FF480721A61494B4FF400725A6103
:101B9800484B0522DA60464B80225A61444B80222A
:101BA8001A61434B4FF400721A61414B4FF4807233
:101BB8001A613F4B4FF400725A61FB791846FEF7E1
:101BC800B3FD39A3D3E90023FEF732FB02460B46E7
:101BD800384C10461946FEF711FE0346E360344BB5
:101BE80080225A61324B80221A61314B4FF40072C5
:101BF8001A612F4B4FF480721A612D4B4FF400720B
:101C08005A612C4B0122DA60294B80225A61284BF9
:101C180080221A61264B4FF400721A61244B4FF44C
:101C280080721A61224B4FF400725A61214BFF22D5
:101C3800DA601F4B80225A611D4B80221A611C4BAF
:101C48004FF400721A611A4B4FF480721A61184BE4
:101C58004FF400725A61174B0022DA60144B80224D
:101C68005A61134B80221A61114B4FF400721A61AA
:101C78000F4B4FF480721A610D4B4FF400725A618A
:101C88000C4B0022DA600A4B80225A61084B8022F2
:101C98001A61074B4FF400721A6100BF0C37BD463A
:101CA80090BD00BFAFF30080666666666666044056
:101CB80000100140000C014080B582B000AF03461F
:101CC800FB71FB79002B77D1804B00229A717F4BF7
:101CD800F0221A807D4B4FF4A0725A807B4B9B8870
:101CE80049F2413293420BD0784B9B8846F6040266
:101CF800934205D0754B9B8845F2103293421ED112
:101D0800724B2C221A81714B2A225A816F4B2B223B
:101D18009A816E4B9B8846F60402934206D06B4B21
:101D28009B8845F21032934240F0C780674B4FF4CE
:101D3800A0721A80654B4FF4F0725A80BDE0634B75
:101D48009B8845F21052934214D1604B4FF43052A5
:101D58001A815E4B4FF428525A815C4B4FF42C5237
:101D68009A815A4B4FF4F0721A80584B4FF44872CC
:101D78005A80A3E0554B9B8841F66312934211D1D8
:101D8800524B2C221A81514B2B225A814F4B2A221B
:101D98009A814E4B4FF4F0721A804C4B4FF44872B4
:101DA8005A808BE0494B22221A81484B20225A81C3
:101DB800464B21229A8181E0444B01229A71434B80
:101DC8004FF4A0721A80414BF0225A803F4B9B88F7
:101DD80049F24132934205D03C4B9B8845F2103280
:101DE800934209D1394B2C221A81384B2A225A8125
:101DF800364B2B229A814BE0344B9B8846F60402E3
:101E0800934209D1314B2C221A81304B2B225A8113
:101E18002E4B2A229A813BE02C4B9B8845F210528C
:101E2800934214D1294B4FF430521A81274B4FF467
:101E380028525A81254B4FF42C529A81234B4FF448
:101E480048721A80214B4FF4F0725A8020E01F4BE1
:101E58009B8841F66312934211D11C4B2C221A81A4
:101E68001A4B2A225A81194B2B229A81174B4FF46D
:101E780048721A80154B4FF4F0725A8008E0134BE1
:101E880022221A81114B21225A81104B20229A8139
:101E98000E4B9B8846F60402934205D00B4B9B8859
:101EA80045F21032934209D1084B4FF4F0721A8070
:101EB800064B4FF4A0725A8000E000BF0020FFF7E5
:101EC8007DF800BF0837BD4680BD00BF4C0000202C
:101ED80080B586B000AF904B9B698F4A43F00803EA
:101EE80093618D4B9B6903F008037B607B688A4B89
:101EF8009B69894A43F010039361874B9B6903F000
:101F080010033B603B684FF4F863BB600123FB6040
:101F180001233B6103237B6107F1080319467F48CE
:101F280004F09AFF4FF6FF73BB6007F108031946E8
:101F38007B4804F091FF322004F054FD0121002079
:101F4800FEF72AFD322004F04DFD0020FEF74EFD7D
:101F580003461A46734B9A80724B9B88FE2B0BD90B
:101F6800704B9B884FF6FF72934205D06D4B9B8850
:101F7800B3F5134F40F0C880D320FEF781FCFEF77D
:101F8800C7FCFEF7C5FCFEF7C3FC03461A46654BC3
:101F98009A80644B9B881B029AB2624B9A80FEF728
:101FA800B7FC03461A465F4B9B8813439AB25D4BB6
:101FB8009A805C4B9B8849F24132934200F0A4809E
:101FC800BF20FEF75DFCFEF7A3FCFEF7A1FCFEF7C1
:101FD8009FFCFEF79DFC03461A46524B9A80514BD4
:101FE8009B881B029AB24F4B9A80FEF791FC0346DE
:101FF8001A464C4B9B8813439AB24A4B9A80494BDA
:102008009B8846F6040293427ED0D420FEF738FC23
:10201800FEF77EFCFEF77CFCFEF77AFC03461A46C8
:10202800404B9A803F4B9B881B029AB23D4B9A804B
:10203800FEF76EFC03461A463A4B9B8813439AB246
:10204800384B9A80374B9B8845F2103293425BD0CD
:102058004FF45A40FEF714FCFEF75AFC4FF45B406D
:10206800FEF70EFCFEF754FC03461A462D4B9A80E9
:102078002C4B9B881B029AB22A4B9A804FF45C40E7
:10208800FEF7FEFBFEF744FC03461A46254B9B88E9
:1020980013439AB2234B9A80224B9B88B3F5004F87
:1020A80003D1204B45F210529A801E4B9B8845F273
:1020B8001052934228D0A120FEF7E2FBFEF728FC3D
:1020C80003461A46174B9A80FEF722FC03461A4627
:1020D800144B9A80134B9B881B029AB2114B9A801F
:1020E800FEF716FC03461A460E4B9B8813439AB21A
:1020F8000C4B9A800B4B9B8845F26172934203D13B
:10210800084B41F663129A80064B9B8849F241328C
:10211800934240F01F8107E0001002400010014088
:10212800000C01404C000020CF20FEF7A9FB002046
:10213800FEF7CAFBC120FEF7C7FB3020FEF7C4FB41
:10214800ED20FEF79DFB6420FEF7BEFB0320FEF7A3
:10215800BBFB1220FEF7B8FB8120FEF7B5FBE82099
:10216800FEF78EFB8520FEF7AFFB1020FEF7ACFBD9
:102178007A20FEF7A9FBCB20FEF782FB3920FEF779
:10218800A3FB2C20FEF7A0FB0020FEF79DFB3420CC
:10219800FEF79AFB0220FEF797FBF720FEF770FB8D
:1021A8002020FEF791FBEA20FEF76AFB0020FEF7ED
:1021B8008BFB0020FEF788FBC020FEF761FB1B208D
:1021C800FEF782FBC120FEF75BFB0120FEF77CFBDC
:1021D800C520FEF755FB3020FEF776FB3020FEF7D2
:1021E80073FBC720FEF74CFBB720FEF76DFB3620CC
:1021F800FEF746FB4820FEF767FB3A20FEF740FB58
:102208005520FEF761FBB120FEF73AFB0020FEF7F0
:102218005BFB1A20FEF758FBB620FEF731FB0A20BD
:10222800FEF752FBA220FEF74FFBF220FEF728FB39
:102238000020FEF749FB2620FEF722FB0120FEF7CF
:1022480043FBE020FEF71CFB0F20FEF73DFB2A2096
:10225800FEF73AFB2820FEF737FB0820FEF734FB91
:102268000E20FEF731FB0820FEF72EFB5420FEF768
:102278002BFBA920FEF728FB4320FEF725FB0A20AD
:10228800FEF722FB0F20FEF71FFB0020FEF71CFBCA
:102298000020FEF719FB0020FEF716FB0020FEF7D2
:1022A80013FBE120FEF7ECFA0020FEF70DFB1520EA
:1022B800FEF70AFB1720FEF707FB0720FEF704FBD3
:1022C8001120FEF701FB0620FEF7FEFA2B20FEF791
:1022D800FBFA5620FEF7F8FA3C20FEF7F5FA05203F
:1022E800FEF7F2FA1020FEF7EFFA0F20FEF7ECFAED
:1022F8003F20FEF7E9FA3F20FEF7E6FA0F20FEF747
:10230800E3FA2B20FEF7BCFA0020FEF7DDFA0020E6
:10231800FEF7DAFA0120FEF7D7FA3F20FEF7D4FAE3
:102328002A20FEF7ADFA0020FEF7CEFA0020FEF7CD
:10233800CBFA0020FEF7C8FAEF20FEF7C5FA112005
:10234800FEF79EFA782004F04DFB2920FEF798FA54
:1023580003F0D8BC584B9B8846F60402934240F0E1
:10236800AD801120FEF78CFA142004F03BFBD0203E
:10237800FEF786FA0720FEF7A7FA4220FEF7A4FA2E
:102388001D20FEF7A1FAD120FEF77AFA0020FEF709
:102398009BFA1A20FEF798FA0920FEF795FAD22040
:1023A800FEF76EFA0120FEF78FFA2220FEF78CFA6C
:1023B800C020FEF765FA1020FEF786FA3B20FEF7EC
:1023C80083FA0020FEF780FA0220FEF77DFA11203A
:1023D800FEF77AFAC520FEF753FA0320FEF774FADF
:1023E800C820FEF74DFA0020FEF76EFA2520FEF70A
:1023F8006BFA2120FEF768FA0520FEF765FA00203F
:10240800FEF762FA0A20FEF75FFA6520FEF75CFA2B
:102418002520FEF759FA7720FEF756FA5020FEF7E6
:1024280053FA0F20FEF750FA0020FEF74DFAF82075
:10243800FEF726FA0120FEF747FAFE20FEF720FAFB
:102448000020FEF741FA0220FEF73EFA2020FEF7B0
:1024580017FA3620FEF714FA0820FEF735FA3A2064
:10246800FEF70EFA5520FEF72FFA2B20FEF708FA92
:102478000020FEF729FA0020FEF726FA0120FEF7D1
:1024880023FA3F20FEF720FA2A20FEF7F9F9002068
:10249800FEF71AFA0020FEF717FA0120FEF714FAE1
:1024A800DF20FEF711FA782004F09CFA2920FEF7C5
:1024B800E7F903F027BC00BF4C000020034B9B88C2
:1024C80045F21032934240F07C8701E04C00002036
:1024D800ED20FEF7D5F90120FEF7F6F9FE20FEF70C
:1024E800F3F9EE20FEF7CCF9DE20FEF7EDF9212016
:1024F800FEF7EAF9F120FEF7C3F90120FEF7E4F947
:10250800DF20FEF7BDF91020FEF7DEF9C420FEF744
:10251800B7F98F20FEF7D8F9C620FEF7B1F90020E9
:10252800FEF7D2F9E220FEF7CFF9E220FEF7CCF968
:10253800E220FEF7C9F9BF20FEF7A2F9AA20FEF7AC
:10254800C3F9B020FEF79CF90D20FEF7BDF9002075
:10255800FEF7BAF90D20FEF7B7F90020FEF7B4F937
:102568001120FEF7B1F90020FEF7AEF91920FEF7A9
:10257800ABF90020FEF7A8F92120FEF7A5F9002005
:10258800FEF7A2F92D20FEF79FF90020FEF79CF92F
:102598003D20FEF799F90020FEF796F95D20FEF739
:1025A80093F90020FEF790F95D20FEF78DF90020E1
:1025B800FEF78AF9B120FEF763F98020FEF784F967
:1025C8000020FEF781F98B20FEF77EF90020FEF748
:1025D8007BF99620FEF778F90020FEF775F9B2200E
:1025E800FEF74EF90020FEF76FF90020FEF76CF9B0
:1025F8000220FEF769F90020FEF766F90320FEF7CE
:1026080063F90020FEF760F9B320FEF739F90020DE
:10261800FEF75AF90020FEF757F90020FEF754F9A3
:102628000020FEF751F90020FEF74EF90020FEF7D2
:102638004BF90020FEF748F90020FEF745F9002085
:10264800FEF742F90020FEF73FF90020FEF73CF9BB
:102658000020FEF739F90020FEF736F90020FEF7D2
:1026680033F90020FEF730F90020FEF72DF900209D
:10267800FEF72AF90020FEF727F90020FEF724F9D3
:102688000020FEF721F90020FEF71EF90020FEF7D2
:102698001BF90020FEF718F90020FEF715F9B42001
:1026A800FEF7EEF88B20FEF70FF90020FEF70CF985
:1026B8009620FEF709F90020FEF706F9A120FEF79B
:1026C80003F90020FEF700F9B520FEF7D9F802203B
:1026D800FEF7FAF80020FEF7F7F80320FEF7F4F803
:1026E8000020FEF7F1F80420FEF7EEF80020FEF7D0
:1026F800EBF8B620FEF7C4F80020FEF7E5F8002056
:10270800FEF7E2F8B720FEF7BBF80020FEF7DCF88A
:102718000020FEF7D9F83F20FEF7D6F80020FEF794
:10272800D3F85E20FEF7D0F80020FEF7CDF864203D
:10273800FEF7CAF80020FEF7C7F88C20FEF7C4F8A9
:102748000020FEF7C1F8AC20FEF7BEF80020FEF727
:10275800BBF8DC20FEF7B8F80020FEF7B5F87020CB
:10276800FEF7B2F80020FEF7AFF89020FEF7ACF8BD
:102778000020FEF7A9F8EB20FEF7A6F80020FEF7E8
:10278800A3F8DC20FEF7A0F80020FEF79DF8B8209B
:10279800FEF776F80020FEF797F80020FEF794F889
:1027A8000020FEF791F80020FEF78EF80020FEF7D3
:1027B8008BF80020FEF788F80020FEF785F8002047
:1027C800FEF782F8BA20FEF75BF82420FEF77CF8C3
:1027D8000020FEF779F80020FEF776F80020FEF7D3
:1027E80073F8C120FEF74CF82020FEF76DF80020A2
:1027F800FEF76AF85420FEF767F80020FEF764F841
:10280800FF20FEF761F80020FEF75EF8C220FEF711
:1028180037F80A20FEF758F80020FEF755F804208C
:10282800FEF752F80020FEF74FF8C320FEF728F80D
:102838003C20FEF749F80020FEF746F83A20FEF75C
:1028480043F80020FEF740F83920FEF73DF8002055
:10285800FEF73AF83720FEF737F80020FEF734F88D
:102868003C20FEF731F80020FEF72EF83620FEF760
:102878002BF80020FEF728F83220FEF725F8002074
:10288800FEF722F82F20FEF71FF80020FEF71CF8AD
:102898002C20FEF719F80020FEF716F82920FEF77D
:1028A80013F80020FEF710F82620FEF70DF8002098
:1028B800FEF70AF82420FEF707F80020FEF704F8D0
:1028C8002420FEF701F80020FDF7FEFF2320FDF786
:1028D800FBFF0020FDF7F8FF3C20FDF7F5FF002087
:1028E800FDF7F2FF3620FDF7EFFF0020FDF7ECFFC4
:1028F8003220FDF7E9FF0020FDF7E6FF2F20FDF766
:10290800E3FF0020FDF7E0FF2C20FDF7DDFF0020AE
:10291800FDF7DAFF2920FDF7D7FF0020FDF7D4FFE8
:102928002620FDF7D1FF0020FDF7CEFF2420FDF77C
:10293800CBFF0020FDF7C8FF2420FDF7C5FF0020CE
:10294800FDF7C2FF2320FDF7BFFF0020FDF7BCFF06
:10295800C420FDF795FF6220FDF7B6FF0020FDF7C4
:10296800B3FF0520FDF7B0FF0020FDF7ADFF842081
:10297800FDF7AAFF0020FDF7A7FFF020FDF7A4FF51
:102988000020FDF7A1FF1820FDF79EFF0020FDF7AE
:102998009BFFA420FDF798FF0020FDF795FF182066
:1029A800FDF792FF0020FDF78FFF5020FDF78CFF09
:1029B8000020FDF789FF0C20FDF786FF0020FDF7BA
:1029C80083FF1720FDF780FF0020FDF77DFF95208E
:1029D800FDF77AFF0020FDF777FFF320FDF774FF7E
:1029E8000020FDF771FFE620FDF76EFF0020FDF7E0
:1029F8006BFFC520FDF744FF3220FDF765FF00207F
:102A0800FDF762FF4420FDF75FFF0020FDF75CFF44
:102A18006520FDF759FF0020FDF756FF7620FDF7EA
:102A280053FF0020FDF750FF8820FDF74DFF0020E1
:102A3800FDF74AFFC620FDF723FF2020FDF744FFDE
:102A48000020FDF741FF1720FDF73EFF0020FDF7AE
:102A58003BFF0120FDF738FF0020FDF735FFC720B9
:102A6800FDF70EFF0020FDF72FFF0020FDF72CFFDC
:102A78000020FDF729FF0020FDF726FFC820FDF7FD
:102A8800FFFE0020FDF720FF0020FDF71DFF0020BE
:102A9800FDF71AFF0020FDF717FFC920FDF7F0FE2C
:102AA8000020FDF711FF0020FDF70EFF0020FDF7C5
:102AB8000BFF0020FDF708FF0020FDF705FF0020B1
:102AC800FDF702FF0020FDF7FFFE0020FDF7FCFEEA
:102AD8000020FDF7F9FE0020FDF7F6FE0020FDF7C7
:102AE800F3FE0020FDF7F0FE0020FDF7EDFE0020CC
:102AF800FDF7EAFE0020FDF7E7FE0020FDF7E4FE03
:102B0800E020FDF7BDFE1620FDF7DEFE0020FDF7F4
:102B1800DBFE1C20FDF7D8FE0020FDF7D5FE2120A6
:102B2800FDF7D2FE0020FDF7CFFE3620FDF7CCFEE4
:102B38000020FDF7C9FE4620FDF7C6FE0020FDF780
:102B4800C3FE5220FDF7C0FE0020FDF7BDFE642045
:102B5800FDF7BAFE0020FDF7B7FE7A20FDF7B4FEB8
:102B68000020FDF7B1FE8B20FDF7AEFE0020FDF73B
:102B7800ABFE9920FDF7A8FE0020FDF7A5FEA820D2
:102B8800FDF7A2FE0020FDF79FFEB920FDF79CFE91
:102B98000020FDF799FEC420FDF796FE0020FDF702
:102BA80093FECA20FDF790FE0020FDF78DFED2208F
:102BB800FDF78AFE0020FDF787FED920FDF784FE89
:102BC8000020FDF781FEE020FDF77EFE0020FDF7E6
:102BD8007BFEF320FDF778FE0020FDF775FEE1206F
:102BE800FDF74EFE1620FDF76FFE0020FDF76CFE88
:102BF8001C20FDF769FE0020FDF766FE2220FDF788
:102C080063FE0020FDF760FE3620FDF75DFE002024
:102C1800FDF75AFE4520FDF757FE0020FDF754FE4C
:102C28005220FDF751FE0020FDF74EFE6420FDF70F
:102C38004BFE0020FDF748FE7A20FDF745FE0020F8
:102C4800FDF742FE8B20FDF73FFE0020FDF73CFE1E
:102C58009920FDF739FE0020FDF736FEA820FDF784
:102C680033FE0020FDF730FEB920FDF72DFE0020D1
:102C7800FDF72AFEC420FDF727FE0020FDF724FEFD
:102C8800CA20FDF721FE0020FDF71EFED220FDF729
:102C98001BFE0020FDF718FED820FDF715FE0020CA
:102CA800FDF712FEE020FDF70FFE0020FDF70CFEF9
:102CB800F320FDF709FE0020FDF706FEE220FDF7F0
:102CC800DFFD0520FDF700FE0020FDF7FDFD0B20D0
:102CD800FDF7FAFD0020FDF7F7FD1B20FDF7F4FDD9
:102CE8000020FDF7F1FD3420FDF7EEFD0020FDF793
:102CF800EBFD4420FDF7E8FD0020FDF7E5FD4F2042
:102D0800FDF7E2FD0020FDF7DFFD6120FDF7DCFDAA
:102D18000020FDF7D9FD7920FDF7D6FD0020FDF74D
:102D2800D3FD8820FDF7D0FD0020FDF7CDFD9720CD
:102D3800FDF7CAFD0020FDF7C7FDA620FDF7C4FD7D
:102D48000020FDF7C1FDB720FDF7BEFD0020FDF70F
:102D5800BBFDC220FDF7B8FD0020FDF7B5FDC7207B
:102D6800FDF7B2FD0020FDF7AFFDD120FDF7ACFD6A
:102D78000020FDF7A9FDD620FDF7A6FD0020FDF7F0
:102D8800A3FDDD20FDF7A0FD0020FDF79DFDF3204C
:102D9800FDF79AFD0020FDF797FDE320FDF770FD94
:102DA8000520FDF791FD0020FDF78EFD0A20FDF7B7
:102DB8008BFD0020FDF788FD1C20FDF785FD002018
:102DC800FDF782FD3320FDF77FFD0020FDF77CFD38
:102DD8004420FDF779FD0020FDF776FD5020FDF732
:102DE80073FD0020FDF770FD6220FDF76DFD0020EA
:102DF800FDF76AFD7820FDF767FD0020FDF764FD0B
:102E08008820FDF761FD0020FDF75EFD9720FDF7A6
:102E18005BFD0020FDF758FDA620FDF755FD0020BD
:102E2800FDF752FDB720FDF74FFD0020FDF74CFDE3
:102E3800C220FDF749FD0020FDF746FDC720FDF73C
:102E480043FD0020FDF740FDD120FDF73DFD0020AA
:102E5800FDF73AFDD520FDF737FD0020FDF734FDDD
:102E6800DD20FDF731FD0020FDF72EFDF320FDF7F5
:102E78002BFD0020FDF728FDE420FDF701FD0120D2
:102E8800FDF722FD0020FDF71FFD0120FDF71CFDC9
:102E98000020FDF719FD0220FDF716FD0020FDF7C3
:102EA80013FD2A20FDF710FD0020FDF70DFD3C2045
:102EB800FDF70AFD0020FDF707FD4B20FDF704FD97
:102EC8000020FDF701FD5D20FDF7FEFC0020FDF769
:102ED800FBFC7420FDF7F8FC0020FDF7F5FC8420CE
:102EE800FDF7F2FC0020FDF7EFFC9320FDF7ECFC6A
:102EF8000020FDF7E9FCA220FDF7E6FC0020FDF725
:102F0800E3FCB320FDF7E0FC0020FDF7DDFCBE206C
:102F1800FDF7DAFC0020FDF7D7FCC420FDF7D4FC50
:102F28000020FDF7D1FCCD20FDF7CEFC0020FDF7F9
:102F3800CBFCD320FDF7C8FC0020FDF7C5FCDD2045
:102F4800FDF7C2FC0020FDF7BFFCF320FDF7BCFC39
:102F58000020FDF7B9FCE520FDF792FC0020FDF705
:102F6800B3FC0020FDF7B0FC0020FDF7ADFC00200D
:102F7800FDF7AAFC0220FDF7A7FC0020FDF7A4FC42
:102F88002920FDF7A1FC0020FDF79EFC3C20FDF761
:102F98009BFC0020FDF798FC4B20FDF795FC0020DA
:102FA800FDF792FC5D20FDF78FFC0020FDF78CFCFF
:102FB8007420FDF789FC0020FDF786FC8420FDF7CE
:102FC80083FC0020FDF780FC9320FDF77DFC0020AA
:102FD800FDF77AFCA220FDF777FC0020FDF774FCD2
:102FE800B320FDF771FC0020FDF76EFCBE20FDF755
:102FF8006BFC0020FDF768FCC420FDF765FC002091
:10300800FDF762FCCD20FDF75FFC0020FDF75CFCBE
:10301800D320FDF759FC0020FDF756FCDC20FDF716
:1030280053FC0020FDF750FCF320FDF74DFC002079
:10303800FDF74AFCE620FDF723FC1120FDF744FCD0
:103048000020FDF741FC3420FDF73EFC0020FDF791
:103058003BFC5620FDF738FC0020FDF735FC7620B8
:10306800FDF732FC0020FDF72FFC7720FDF72CFC44
:103078000020FDF729FC6620FDF726FC0020FDF75F
:1030880023FC8820FDF720FC0020FDF71DFC99207B
:10309800FDF71AFC0020FDF717FCBB20FDF714FC18
:1030A8000020FDF711FC9920FDF70EFC0020FDF72C
:1030B8000BFC6620FDF708FC0020FDF705FC5520F9
:1030C800FDF702FC0020FDF7FFFB5520FDF7FCFB98
:1030D8000020FDF7F9FB4520FDF7F6FB0020FDF782
:1030E800F3FB4320FDF7F0FB0020FDF7EDFB442048
:1030F800FDF7EAFB0020FDF7E7FBE720FDF7C0FB43
:103108003220FDF7E1FB0020FDF7DEFB5520FDF73F
:10311800DBFB0020FDF7D8FB7620FDF7D5FB002070
:10312800FDF7D2FB6620FDF7CFFB0020FDF7CCFBB7
:103138006720FDF7C9FB0020FDF7C6FB6720FDF7F8
:10314800C3FB0020FDF7C0FB8720FDF7BDFB002077
:10315800FDF7BAFB9920FDF7B7FB0020FDF7B4FB9C
:10316800BB20FDF7B1FB0020FDF7AEFB9920FDF772
:10317800ABFB0020FDF7A8FB7720FDF7A5FB00209F
:10318800FDF7A2FB4420FDF79FFB0020FDF79CFB09
:103198005620FDF799FB0020FDF796FB2320FDF74D
:1031A80093FB0020FDF790FB3320FDF78DFB0020FB
:1031B800FDF78AFB4520FDF787FB0020FDF784FB20
:1031C800E820FDF75DFB0020FDF77EFB0020FDF702
:1031D8007BFB9920FDF778FB0020FDF775FB872026
:1031E800FDF772FB0020FDF76FFB8820FDF76CFBF5
:1031F8000020FDF769FB7720FDF766FB0020FDF74F
:1032080063FB6620FDF760FB0020FDF75DFB88206F
:10321800FDF75AFB0020FDF757FBAA20FDF754FBEA
:103228000020FDF751FBBB20FDF74EFB0020FDF70A
:103238004BFB9920FDF748FB0020FDF745FB662076
:10324800FDF742FB0020FDF73FFB5520FDF73CFB57
:103258000020FDF739FB5520FDF736FB0020FDF770
:1032680033FB4420FDF730FB0020FDF72DFB442005
:10327800FDF72AFB0020FDF727FB5520FDF724FB6F
:103288000020FDF721FBE920FDF7FAFAAA20FDF757
:103298001BFB0020FDF718FB0020FDF715FB0020A5
:1032A800FDF712FB0020FDF7EBFAAA20FDF70CFB57
:1032B800CF20FDF7E5FA0020FDF706FB0020FDF71B
:1032C80003FB0020FDF700FB0020FDF7FDFA0020BE
:1032D800FDF7FAFA0020FDF7F7FA0020FDF7F4FAF7
:1032E8000020FDF7F1FA0020FDF7EEFA0020FDF7C7
:1032F800EBFA0020FDF7E8FA0020FDF7E5FA0020D8
:10330800FDF7E2FA0020FDF7DFFA0020FDF7DCFA0E
:103318000020FDF7D9FA0020FDF7D6FAF020FDF7D6
:10332800AFFA0020FDF7D0FA5020FDF7CDFA0020C3
:10333800FDF7CAFA0020FDF7C7FA0020FDF7C4FA26
:10334800F320FDF79DFA0020FDF7BEFAF920FDF7FE
:1033580097FA0620FDF7B8FA1020FDF7B5FA2920EC
:10336800FDF7B2FA0020FDF7AFFA3A20FDF788FA28
:103378005520FDF7A9FA1120FDF782FA642003F021
:1033880031FB2920FDF77CFA3520FDF779FA00207A
:10339800FDF79AFA5120FDF773FAFF20FDF794FA2A
:1033A8005320FDF76DFA2C20FDF78EFA5520FDF716
:1033B80067FA8220FDF788FA2C20FDF761FA02F0FF
:1033C800A1BC044B9B8845F21052934240F082877F
:1033D80002E000BF4C00002055214FF47040FDF77B
:1033E800DBFAAA214FF20100FDF7D6FA52214FF27B
:1033F8000200FDF7D1FA08214FF20300FDF7CCFADD
:1034080001214FF20400FDF7C7FA0D214FF43040B7
:10341800FDF7C2FA0D214BF20100FDF7BDFA0D21AF
:103428004BF20200FDF7B8FA34214FF43640FDF7AD
:10343800B3FA34214BF20160FDF7AEFA34214BF2B6
:103448000260FDF7A9FA0D214FF43140FDF7A4FA07
:103458000D214BF20110FDF79FFA0D214BF20210DE
:10346800FDF79AFA34214FF43740FDF795FA3421E5
:103478004BF20170FDF790FA34214BF20270FDF720
:103488008BFA00214FF43240FDF786FA00214BF207
:103498000120FDF781FA00214BF20220FDF77CFAAA
:1034A80024214FF43840FDF777FA24214BF6010028
:1034B800FDF772FA24214BF60200FDF76DFA01219F
:1034C8004FF43F40FDF768FA0F214FF43340FDF702
:1034D80063FA0F214BF20130FDF75EFA0F214BF230
:1034E8000230FDF759FA34214FF43940FDF754FA08
:1034F80034214BF60110FDF74FFA34214BF6021038
:10350800FDF74AFA08214FF43540FDF745FA08213E
:103518004BF20150FDF740FA08214BF20250FDF73B
:103528003BFA03214FF44240FDF736FA24214FF4C9
:103538003A40FDF731FA24214BF60120FDF72CFA29
:1035480024214BF60220FDF727FA00214FF43C40D6
:10355800FDF722FA78214BF60140FDF71DFA00210C
:103568004BF60240FDF718FA00214FF43D40FDF7F5
:1035780013FA78214BF60150FDF70EFA00214BF6AD
:103588000250FDF709FA00214FF43E40FDF704FA16
:1035980064214BF60160FDF7FFF900214FF451401B
:1035A800FDF7FAF933214DF20110FDF7F5F9002185
:1035B8004DF20210FDF7F0F934214DF20310FDF73A
:1035C800EBF900214DF20410FDF7E6F93A214DF22E
:1035D8000510FDF7E1F900214DF20610FDF7DCF9C1
:1035E8004A214DF20710FDF7D7F900214DF20810D6
:1035F800FDF7D2F95C214DF20910FDF7CDF9002154
:103608004DF20A10FDF7C8F981214DF20B10FDF7B4
:10361800C3F900214DF20C10FDF7BEF9A6214DF2B9
:103628000D10FDF7B9F900214DF20E10FDF7B4F9B0
:10363800E5214DF20F10FDF7AFF901214DF2101001
:10364800FDF7AAF913214DF21110FDF7A5F9012193
:103658004DF21210FDF7A0F954214DF21310FDF7A9
:103668009BF901214DF21410FDF796F982214DF2D4
:103678001510FDF791F901214DF21610FDF78CF99F
:10368800CA214DF21710FDF787F902214DF21810E3
:10369800FDF782F900214DF21910FDF77DF902219D
:1036A8004DF21A10FDF778F901214DF21B10FDF7C4
:1036B80073F902214DF21C10FDF76EF934214DF219
:1036C8001D10FDF769F902214DF21E10FDF764F98E
:1036D80067214DF21F10FDF75FF902214DF220100E
:1036E800FDF75AF984214DF22110FDF755F9022111
:1036F8004DF22210FDF750F9A4214DF22310FDF7E9
:103708004BF902214DF22410FDF746F9B7214DF28D
:103718002510FDF741F902214DF22610FDF73CF97D
:10372800CF214DF22710FDF737F902214DF228106D
:10373800FDF732F9DE214DF22910FDF72DF90221AE
:103748004DF22A10FDF728F9F2214DF22B10FDF762
:1037580023F902214DF22C10FDF71EF9FE214DF23E
:103768002D10FDF719F903214DF22E10FDF714F96C
:1037780010214DF22F10FDF70FF903214DF23010F3
:10378800FDF70AF933214DF23110FDF705F9032150
:103798004DF23210FDF700F96D214DF23310FDF7AF
:1037A800FBF800214FF45240FDF7F6F833214DF2B3
:1037B8000120FDF7F1F800214DF20220FDF7ECF8A9
:1037C80034214DF20320FDF7E7F800214DF20420E3
:1037D800FDF7E2F83A214DF20520FDF7DDF800216A
:1037E8004DF20620FDF7D8F84A214DF20720FDF7E3
:1037F800D3F800214DF20820FDF7CEF85C214DF2F8
:103808000920FDF7C9F800214DF20A20FDF7C4F898
:1038180081214DF20B20FDF7BFF800214DF20C205D
:10382800FDF7BAF8A6214DF20D20FDF7B5F80021F5
:103838004DF20E20FDF7B0F8E5214DF20F20FDF70F
:10384800ABF801214DF21020FDF7A6F813214DF237
:103858001120FDF7A1F801214DF21220FDF79CF887
:1038680054214DF21320FDF797F801214DF2142051
:10387800FDF792F882214DF21520FDF78DF8012110
:103888004DF21620FDF788F8CA214DF21720FDF7F2
:1038980083F802214DF21820FDF77EF800214DF241
:1038A8001920FDF779F802214DF21A20FDF774F876
:1038B80001214DF21B20FDF76FF802214DF21C206B
:1038C800FDF76AF834214DF21D20FDF765F8022155
:1038D8004DF21E20FDF760F867214DF21F20FDF71D
:1038E8005BF802214DF22020FDF756F884214DF2B5
:1038F8002120FDF751F802214DF22220FDF74CF866
:10390800A4214DF22320FDF747F802214DF224208F
:10391800FDF742F8B7214DF22520FDF73DF80221C9
:103928004DF22620FDF738F8CF214DF22720FDF77C
:1039380033F802214DF22820FDF72EF8DE214DF252
:103948002920FDF729F802214DF22A20FDF724F855
:10395800F2214DF22B20FDF71FF802214DF22C2009
:10396800FDF71AF8FE214DF22D20FDF715F8032179
:103978004DF22E20FDF710F810214DF22F20FDF703
:103988000BF803214DF23020FDF706F833214DF2F4
:103998003120FDF701F803214DF23220FCF7FCFF3E
:1039A8006D214DF23320FCF7F7FF00214FF453400F
:1039B800FCF7F2FF33214DF20130FCF7EDFF002157
:1039C8004DF20230FCF7E8FF34214DF20330FCF7EA
:1039D800E3FF00214DF20430FCF7DEFF3A214DF2FF
:1039E8000530FCF7D9FF00214DF20630FCF7D4FF73
:1039F8004A214DF20730FCF7CFFF00214DF2083085
:103A0800FCF7CAFF5C214DF20930FCF7C5FF002125
:103A18004DF20A30FCF7C0FF81214DF20B30FCF764
:103A2800BBFF00214DF20C30FCF7B6FFA6214DF28A
:103A38000D30FCF7B1FF00214DF20E30FCF7ACFF62
:103A4800E5214DF20F30FCF7A7FF01214DF21030B0
:103A5800FCF7A2FF13214DF21130FCF79DFF012165
:103A68004DF21230FCF798FF54214DF21330FCF759
:103A780093FF01214DF21430FCF78EFF82214DF2A5
:103A88001530FCF789FF01214DF21630FCF784FF51
:103A9800CA214DF21730FCF77FFF02214DF2183092
:103AA800FCF77AFF00214DF21930FCF775FF02216F
:103AB8004DF21A30FCF770FF01214DF21B30FCF774
:103AC8006BFF02214DF21C30FCF766FF34214DF2EA
:103AD8001D30FCF761FF02214DF21E30FCF75CFF40
:103AE80067214DF21F30FCF757FF02214DF22030BD
:103AF800FCF752FF84214DF22130FCF74DFF0221E3
:103B08004DF22230FCF748FFA4214DF22330FCF798
:103B180043FF02214DF22430FCF73EFFB7214DF25E
:103B28002530FCF739FF02214DF22630FCF734FF2F
:103B3800CF214DF22730FCF72FFF02214DF228301C
:103B4800FCF72AFFDE214DF22930FCF725FF022180
:103B58004DF22A30FCF720FFF2214DF22B30FCF712
:103B68001BFF02214DF22C30FCF716FFFE214DF20F
:103B78002D30FCF711FF03214DF22E30FCF70CFF1E
:103B880010214DF22F30FCF707FF03214DF23030A2
:103B9800FCF702FF33214DF23130FCF7FDFE032123
:103BA8004DF23230FCF7F8FE6D214DF23330FCF760
:103BB800F3FE00214FF45440FCF7EEFE33214DF2A2
:103BC8000140FCF7E9FE00214DF20240FCF7E4FE5B
:103BD80034214DF20340FCF7DFFE00214DF2044092
:103BE800FCF7DAFE3A214DF20540FCF7D5FE00213C
:103BF8004DF20640FCF7D0FE4A214DF20740FCF793
:103C0800CBFE00214DF20840FCF7C6FE5C214DF2C8
:103C18000940FCF7C1FE00214DF20A40FCF7BCFE4A
:103C280081214DF20B40FCF7B7FE00214DF20C400C
:103C3800FCF7B2FEA6214DF20D40FCF7ADFE0021C7
:103C48004DF20E40FCF7A8FEE5214DF20F40FCF7BF
:103C5800A3FE01214DF21040FCF79EFE13214DF208
:103C68001140FCF799FE01214DF21240FCF794FE39
:103C780054214DF21340FCF78FFE01214DF2144000
:103C8800FCF78AFE82214DF21540FCF785FE0121E2
:103C98004DF21640FCF780FECA214DF21740FCF7A2
:103CA8007BFE02214DF21840FCF776FE00214DF212
:103CB8001940FCF771FE02214DF21A40FCF76CFE28
:103CC80001214DF21B40FCF767FE02214DF21C401A
:103CD800FCF762FE34214DF21D40FCF75DFE022127
:103CE8004DF21E40FCF758FE67214DF21F40FCF7CD
:103CF80053FE02214DF22040FCF74EFE84214DF286
:103D08002140FCF749FE02214DF22240FCF744FE17
:103D1800A4214DF22340FCF73FFE02214DF224403E
:103D2800FCF73AFEB7214DF22540FCF735FE02219B
:103D38004DF22640FCF730FECF214DF22740FCF72C
:103D48002BFE02214DF22840FCF726FEDE214DF223
:103D58002940FCF721FE02214DF22A40FCF71CFE07
:103D6800F2214DF22B40FCF717FE02214DF22C40B8
:103D7800FCF712FEFE214DF22D40FCF70DFE03214B
:103D88004DF22E40FCF708FE10214DF22F40FCF7B3
:103D980003FE03214DF23040FCF7FEFD33214DF2C6
:103DA8003140FCF7F9FD03214DF23240FCF7F4FDF8
:103DB8006D214DF23340FCF7EFFD00214FF45540E3
:103DC800FCF7EAFD33214DF20150FCF7E5FD002137
:103DD8004DF20250FCF7E0FD34214DF20350FCF7A0
:103DE800DBFD00214DF20450FCF7D6FD3A214DF2DF
:103DF8000550FCF7D1FD00214DF20650FCF7CCFD33
:103E08004A214DF20750FCF7C7FD00214DF208503A
:103E1800FCF7C2FD5C214DF20950FCF7BDFD002105
:103E28004DF20A50FCF7B8FD81214DF20B50FCF71A
:103E3800B3FD00214DF20C50FCF7AEFDA6214DF26A
:103E48000D50FCF7A9FD00214DF20E50FCF7A4FD22
:103E5800E5214DF20F50FCF79FFD01214DF2105066
:103E6800FCF79AFD13214DF21150FCF795FD012145
:103E78004DF21250FCF790FD54214DF21350FCF70F
:103E88008BFD01214DF21450FCF786FD82214DF285
:103E98001550FCF781FD01214DF21650FCF77CFD11
:103EA800CA214DF21750FCF777FD02214DF2185048
:103EB800FCF772FD00214DF21950FCF76DFD02214F
:103EC8004DF21A50FCF768FD01214DF21B50FCF72A
:103ED80063FD02214DF21C50FCF75EFD34214DF2CA
:103EE8001D50FCF759FD02214DF21E50FCF754FD00
:103EF80067214DF21F50FCF74FFD02214DF2205073
:103F0800FCF74AFD84214DF22150FCF745FD0221C2
:103F18004DF22250FCF740FDA4214DF22350FCF74E
:103F28003BFD02214DF22450FCF736FDB7214DF23E
:103F38002550FCF731FD02214DF22650FCF72CFDEF
:103F4800CF214DF22750FCF727FD02214DF22850D2
:103F5800FCF722FDDE214DF22950FCF71DFD022160
:103F68004DF22A50FCF718FDF2214DF22B50FCF7C8
:103F780013FD02214DF22C50FCF70EFDFE214DF2EF
:103F88002D50FCF709FD03214DF22E50FCF704FDDE
:103F980010214DF22F50FCF7FFFC03214DF2305059
:103FA800FCF7FAFC33214DF23150FCF7F5FC032104
:103FB8004DF23250FCF7F0FC6D214DF23350FCF716
:103FC800EBFC00214FF45640FCF7E6FC33214DF2A0
:103FD8000160FCF7E1FC00214DF20260FCF7DCFC1B
:103FE80034214DF20360FCF7D7FC00214DF2046048
:103FF800FCF7D2FC3A214DF20560FCF7CDFC00211C
:104008004DF20660FCF7C8FC4A214DF20760FCF748
:10401800C3FC00214DF20860FCF7BEFC5C214DF2A8
:104028000960FCF7B9FC00214DF20A60FCF7B4FC0A
:1040380081214DF20B60FCF7AFFC00214DF20C60C2
:10404800FCF7AAFCA6214DF20D60FCF7A5FC0021A7
:104058004DF20E60FCF7A0FCE5214DF20F60FCF775
:104068009BFC01214DF21060FCF796FC13214DF2E8
:104078001160FCF791FC01214DF21260FCF78CFCF9
:1040880054214DF21360FCF787FC01214DF21460B6
:10409800FCF782FC82214DF21560FCF77DFC0121C2
:1040A8004DF21660FCF778FCCA214DF21760FCF758
:1040B80073FC02214DF21860FCF76EFC00214DF2F2
:1040C8001960FCF769FC02214DF21A60FCF764FCE8
:1040D80001214DF21B60FCF75FFC02214DF21C60D0
:1040E800FCF75AFC34214DF21D60FCF755FC022107
:1040F8004DF21E60FCF750FC67214DF21F60FCF783
:104108004BFC02214DF22060FCF746FC84214DF265
:104118002160FCF741FC02214DF22260FCF73CFCD7
:10412800A4214DF22360FCF737FC02214DF22460F4
:10413800FCF732FCB7214DF22560FCF72DFC02217B
:104148004DF22660FCF728FCCF214DF22760FCF7E2
:1041580023FC02214DF22860FCF71EFCDE214DF203
:104168002960FCF719FC02214DF22A60FCF714FCC7
:10417800F2214DF22B60FCF70FFC02214DF22C606E
:10418800FCF70AFCFE214DF22D60FCF705FC03212B
:104198004DF22E60FCF700FC10214DF22F60FCF769
:1041A800FBFB03214DF23060FCF7F6FB33214DF2A7
:1041B8003160FCF7F1FB03214DF23260FCF7ECFBB8
:1041C8006D214DF23360FCF7E7FB55214FF4704049
:1041D800FCF7E2FBAA214FF20100FCF7DDFB5221BC
:1041E8004FF20200FCF7D8FB08214FF20300FCF75E
:1041F800D3FB00214FF20400FCF7CEFBCC214FF497
:104208003140FCF7C9FB00214BF20110FCF7C4FB5D
:1042180005214FF43640FCF7BFFB70214FF43740BF
:10422800FCF7BAFB70214BF20170FCF7B5FB0121DA
:104238004FF43840FCF7B0FB03214BF60100FCF7C4
:10424800ABFB03214BF60200FCF7A6FB03214BF660
:104258000300FCF7A1FB02214FF43C40FCF79CFB58
:1042680000214BF60140FCF797FB00214BF602407A
:10427800FCF792FBD0214FF44940FCF78DFB02215B
:104288004CF60110FCF788FB50214CF60210FCF7A5
:1042980083FB50214CF60310FCF77EFB50214CF6B3
:1042A8000410FCF779FB00214FF45450FCF774FB21
:1042B80055214FF46850FCF76FFB4FF48850FCF71A
:1042C800DFFA012002F08EFB4FF42450FCF7D8FAF5
:1042D80001F018BDEC4B9B8849F22532934240F01F
:1042E800D78047F6F001E520FCF756FB4FF48071C4
:1042F8000120FCF751FB4FF4E0610220FCF74CFB76
:1043080041F230010320FCF747FB00210420FCF7B1
:1043180043FB40F202210820FCF73EFB0021092064
:10432800FCF73AFB00210A20FCF736FB00210C20A1
:10433800FCF732FB00210D20FCF72EFB00210F209B
:10434800FCF72AFB00211020FCF726FB072111208F
:10435800FCF722FB00211220FCF71EFB0021132092
:10436800FCF71AFB00210720FCF716FB41F29061CD
:104378001020FCF711FB40F227211120FCF70CFB61
:104388009D211220FCF708FB4FF4C8511320FCF7BD
:1043980003FB25212920FCF7FFFA0D212B20FCF730
:1043A800FBFA07213020FCF7F7FA40F203313120FD
:1043B800FCF7F2FA03213220FCF7EEFA40F206216C
:1043C8003520FCF7E9FA08213620FCF7E5FA40F237
:1043D80006413720FCF7E0FA4FF441713820FCF72A
:1043E800DBFA07213920FCF7D7FA40F202613C20BA
:1043F800FCF7D2FA08213D20FCF7CEFA0021502024
:10440800FCF7CAFAEF215120FCF7C6FA0021522026
:10441800FCF7C2FA40F23F115320FCF7BDFA4FF403
:1044280027416020FCF7B8FA01216120FCF7B4FAB3
:1044380000216A20FCF7B0FA00218020FCF7ACFAD2
:1044480000218120FCF7A8FA00218220FCF7A4FAB9
:1044580000218320FCF7A0FA00218420FCF79CFAB5
:1044680000218520FCF798FA10219020FCF794FA97
:104478004FF4C0619220FCF78FFA40F23311072005
:10448800FCF78AFA22210020FCF786FA01F03ABCF0
:104498007D4B9B8849F22832934240F0F78041F2E5
:1044A8008F01EC20FCF778FA41F23421EF20FCF779
:1044B80073FA4FF480710120FCF76EFA4FF4E06153
:1044C8000220FCF769FA41F230010320FCF764FA94
:1044D80000210420FCF760FA40F202210820FCF7D2
:1044E8005BFA00210920FCF757FA00210A20FCF7A3
:1044F80053FA01210C20FCF74FFA00210D20FCF79C
:104508004BFA00210F20FCF747FA00211020FCF796
:1045180043FA07211120FCF73FFA00211220FCF78B
:104528003BFA00211320FCF737FA01210720FCF79A
:1045380033FA322002F056FA41F290411020FCF78B
:104548002BFA40F227211120FCF726FA322002F03C
:1045580049FA8A211220FCF71FFA322002F042FAA7
:104568004FF4D0511320FCF717FA06212920FCF745
:1045780013FA0D212B20FCF70FFA322002F032FA41
:1045880000212020FCF708FA00212120FCF704FA7A
:10459800322002F027FA00213020FCF7FDF940F222
:1045A80004613120FCF7F8F940F205313220FCF7BC
:1045B800F3F900213520FCF7EFF940F609413620E0
:1045C800FCF7EAF94FF401713720FCF7E5F940F2FE
:1045D80001313820FCF7E0F940F207713920FCF787
:1045E800DBF900213C20FCF7D7F940F60A213D20F1
:1045F800FCF7D2F9322002F0F5F900215020FCF73F
:10460800CBF9EF215120FCF7C7F900215220FCF724
:10461800C3F940F23F115320FCF7BEF94FF427418C
:104628006020FCF7B9F901216120FCF7B5F90021F8
:104638006A20FCF7B1F900218020FCF7ADF90021D0
:104648008120FCF7A9F900218220FCF7A5F90021B7
:104658008320FCF7A1F900218420FCF79DF90021B3
:104668008520FCF799F910219020FCF795F94FF473
:10467800C0619220FCF790F940F233110720FCF753
:104688008BF901F03FBB00BF4C000020CE4B9B884C
:1046980049F22032934240F0AD8000210020FCF71F
:1046A8007BF94FF480710120FCF776F94FF4E06153
:1046B8000220FCF771F941F230010320FCF76CF994
:1046C80000210420FCF768F940F202210820FCF7D9
:1046D80063F900210920FCF75FF900210A20FCF7A3
:1046E8005BF901210C20FCF757F900210D20FCF79C
:1046F80053F900210F20FCF74FF9322002F072F92C
:1047080040F201110720FCF747F9322002F06AF95C
:104718004FF486511020FCF73FF907211120FCF7D0
:104728003BF94FF488711220FCF736F94FF43061E9
:104738001320FCF731F900212920FCF72DF944F268
:1047480010012B20FCF728F900215020FCF724F950
:10475800EF215120FCF720F900215220FCF71CF929
:1047680040F23F115320FCF717F94FF41C51602019
:10477800FCF712F901216120FCF70EF900216A20EB
:10478800FCF70AF900218020FCF706F900218120B6
:10479800FCF702F900218220FCF7FEF800218320B3
:1047A800FCF7FAF800218420FCF7F6F800218520B0
:1047B800FCF7F2F810219020FCF7EEF80021922087
:1047C800FCF7EAF801219320FCF7E6F84FF488712A
:1047D8009520FCF7E1F800219720FCF7DDF800218F
:1047E8009820FCF7D9F840F273110720FCF7D4F8A9
:1047F80001F088BA744B9B8849F23132934240F0F9
:10480800E58041F21401E720FCF7C6F84FF4807107
:104818000120FCF7C1F84FF400710220FCF7BCF846
:1048280041F238010320FCF7B7F840F202210820D2
:10483800FCF7B2F800210920FCF7AEF800210A20A5
:10484800FCF7AAF800210C20FCF7A6F800210D209F
:10485800FCF7A2F800210F20FCF79EF80021102099
:10486800FCF79AF807211120FCF796F8002112208E
:10487800FCF792F800211320FCF78EF8C82002F00C
:10488800B1F841F290611020FCF786F840F2272138
:104898001120FCF781F8322002F0A4F80C21122034
:1048A800FCF77AF8322002F09DF84FF400611320EB
:1048B800FCF772F811212920FCF76EF80B212B2048
:1048C800FCF76AF8322002F08DF800212020FCF76E
:1048D80063F840F23F112120FCF75EF800213020F8
:1048E800FCF75AF84FF483713120FCF755F8002192
:1048F8003220FCF751F84FF401713520FCF74CF8E1
:1049080041F20A613620FCF747F840F20771372078
:10491800FCF742F84FF483713820FCF73DF840F279
:1049280007713920FCF738F840F202413C20FCF7C7
:1049380033F840F60F413D20FCF72EF800215020B7
:10494800FCF72AF8EF215120FCF726F80021522025
:10495800FCF722F840F23F115320FCF71DF84FF402
:104968001C516020FCF718F801216120FCF714F8AD
:1049780000216A20FCF710F800218020FCF70CF8D1
:1049880000218120FCF708F800218220FCF704F8B8
:1049980000218320FCF700F800218420FBF7FCFFAE
:1049A80000218520FBF7F8FF10219020FBF7F4FF8A
:1049B8004FF4C0619220FBF7EFFF40F2331107205C
:1049C800FBF7EAFF01F09EB94C000020E24B9B8800
:1049D80045F20842934240F0A3804FF480710120D1
:1049E800FBF7DAFF4FF4E0610220FBF7D5FF41F255
:1049F80030010320FBF7D0FF00210420FBF7CCFF98
:104A080040F207210820FBF7C7FF00210920FBF728
:104A1800C3FF00210A20FBF7BFFF00210C20FBF792
:104A2800BBFF00210D20FBF7B7FF00210F20FBF78C
:104A3800B3FF142001F0D6FF41F2B0611020FBF75C
:104A4800ABFF01211120FBF7A7FF01211720FBF77E
:104A5800A3FF4FF49C711220FBF79EFF4FF40061F7
:104A68001320FBF799FF09212920FBF795FF09215E
:104A78002A20FBF791FF0021A420FBF78DFF0021DE
:104A88005020FBF789FFEF215120FBF785FF00211C
:104A98005220FBF781FF40F23F115320FBF77CFFC8
:104AA8004FF41C516020FBF777FF01216120FBF7D1
:104AB80073FF00216A20FBF76FFF00218020FBF7BE
:104AC8006BFF00218120FBF767FF00218220FBF7A5
:104AD80063FF00218320FBF75FFF00218420FBF7A1
:104AE8005BFF00218520FBF757FF13219020FBF780
:104AF80053FF00219220FBF74FFF03219320FBF780
:104B08004BFF4FF488719520FBF746FF40F2731175
:104B18000720FBF741FF322001F064FF01F0F2B8F3
:104B28008D4B9B8841F20552934240F0178100213A
:104B38000720FBF731FF322001F054FF4FF48E714C
:104B48001220FBF729FF0121A420FBF725FF0F21E5
:104B58000820FBF721FF08210A20FBF71DFF082189
:104B68000D20FBF719FF40F207713020FBF714FF07
:104B780007213120FBF710FF40F203613220FBF7D9
:104B88000BFF4FF4E0613320FBF706FF40F20221F0
:104B98003420FBF701FF02213520FBF7FDFE41F62B
:104BA8000F713620FBF7F8FE40F207713720FBF74C
:104BB800F3FE00213820FBF7EFFE00213920FBF738
:104BC800EBFE40F207713A20FBF7E6FE00213B209E
:104BD800FBF7E2FE07213C20FBF7DEFE00213D202B
:104BE800FBF7DAFE322001F0FDFE01210720FBF77A
:104BF800D3FE01211720FBF7CFFE322001F0F2FE91
:104C08004FF4BD511020FBF7C7FE40F217211120C9
:104C1800FBF7C2FE4FF48F711220FBF7BDFE4FF475
:104C280070611320FBF7B8FE00212A20FBF7B4FEC1
:104C38000A212920FBF7B0FE4FF49F711220FBF7E1
:104C4800ABFE00215020FBF7A7FEEF215120FBF718
:104C5800A3FE00215220FBF79FFE40F23F11532094
:104C6800FBF79AFE4FF41C516020FBF795FE0121DB
:104C78006120FBF791FE00216A20FBF78DFE0021E1
:104C88008020FBF789FE00218120FBF785FE0021AB
:104C98008220FBF781FE00218320FBF77DFE0021A7
:104CA8008420FBF779FE00218520FBF775FE132190
:104CB8009020FBF771FE4FF440719220FBF76CFED9
:104CC80005219320FBF768FE00219520FBF764FE81
:104CD80000219720FBF760FE00219820FBF75CFE7F
:104CE8004FF480710120FBF757FE4FF4E06102207A
:104CF800FBF752FE41F238010320FBF74DFE00217D
:104D08000420FBF749FE00210C20FBF745FE00219B
:104D18000F20FBF741FE00212020FBF73DFE00217C
:104D28002120FBF739FE21210720FBF735FE14204F
:104D380001F058FE61210720FBF72EFE142001F038
:104D480051FE40F273110720FBF726FE142001F0F4
:104D580049FE00F0D7BF00BF4C000020F04B9B88F5
:104D68004BF20552934240F0038100210020FBF7EB
:104D780013FE00210020FBF70FFE00210020FBF7A7
:104D88000BFE00210020FBF707FE0121A420FBF702
:104D980003FE142001F026FE4FF41C516020FBF79F
:104DA800FBFD40F202210820FBF7F6FD4FF40571E8
:104DB8003020FBF7F1FD43F215713120FBF7ECFDD4
:104DC80040F204613220FBF7E7FD40F6166133201C
:104DD800FBF7E2FD42F211213420FBF7DDFD4FF431
:104DE800A8513520FBF7D8FD48F207513620FBF7CC
:104DF800D3FD41F207413720FBF7CEFD41F20341D5
:104E08003820FBF7C9FD20213920FBF7C5FD1A2101
:104E18009020FBF7C1FD00211020FBF7BDFD072105
:104E28001120FBF7B9FD00211220FBF7B5FD002189
:104E38001320FBF7B1FD142001F0D4FD4FF4E66117
:104E48001020FBF7A9FD40F237111120FBF7A4FD54
:104E5800142001F0C7FD4FF4DC711220FBF79CFD14
:104E6800142001F0BFFD4FF470611320FBF794FD8F
:104E780080212A20FBF790FD48212920FBF78CFD93
:104E8800142001F0AFFD4FF480710120FBF784FD81
:104E98004FF4E0610220FBF77FFD41F23801032067
:104EA800FBF77AFD40F202210820FBF775FD00218F
:104EB8000A20FBF771FD00210C20FBF76DFD002196
:104EC8000D20FBF769FD30210E20FBF765FD002161
:104ED8005020FBF761FDEF215120FBF75DFD00211C
:104EE8005220FBF759FD40F23F115320FBF754FDC8
:104EF8004FF41C516020FBF74FFD01216120FBF7A7
:104F08004BFD00216A20FBF747FD11219020FBF79C
:104F180043FD4FF4C0619220FBF73EFD40F2024191
:104F28009320FBF739FD02219420FBF735FD14206F
:104F380001F058FD01210720FBF72EFD142001F098
:104F480051FD61210720FBF727FD40F2731107206F
:104F5800FBF722FD00212020FBF71EFD0021212068
:104F6800FBF71AFD22210020FBF716FD00F0CABE50
:104F78006B4B9B884CF20552934240F0D380002142
:104F88000020FBF709FD00210020FBF705FD142098
:104F980001F028FD00210020FBF7FEFC0021002085
:104FA800FBF7FAFC00210020FBF7F6FC00210020AB
:104FB800FBF7F2FC0121A420FBF7EEFC142001F022
:104FC80011FD4FF41C516020FBF7E6FC40F606018A
:104FD8000820FBF7E1FC40F203713020FBF7DCFC12
:104FE80001213120FBF7D8FC04213220FBF7D4FC47
:104FF8004FF481713320FBF7CFFC4FF4407134201C
:10500800FBF7CAFC40F203113520FBF7C5FC1F2152
:105018003620FBF7C1FC40F203713720FBF7BCFCDC
:1050280001213820FBF7B8FC04213920FBF7B4FC38
:1050380015219020FBF7B0FC4FF482611020FBF79C
:10504800ABFC40F247211120FBF7A6FC4FF4DE71C0
:105058001220FBF7A1FC4FF460611320FBF79CFCC6
:10506800782001F0BFFC4FF480710120FBF794FC1D
:105078004FF400710220FBF78FFC41F2300103204E
:10508800FBF78AFC08210A20FBF786FC00210C208C
:10509800FBF782FC20210E20FBF77EFC00210F206D
:1050A800FBF77AFC00212020FBF776FC0021212069
:1050B800FBF772FC3D212A20FBF76EFC142001F05F
:1050C80091FC2D212920FBF767FC00215020FBF7DC
:1050D80063FC4DF2EF015120FBF75EFC00215220EA
:1050E800FBF75AFC40F23F115320FBF755FC002117
:1050F8006120FBF751FC00216A20FBF74DFC4FF4BF
:1051080040719220FBF748FC05219320FBF744FCF3
:105118004FF480710720FBF73FFC00F0F3BD00BFA0
:105128004C000020C24B9B8848F68912934240F0FD
:10513800BC8001210020FBF72FFC4AF6A4010320C4
:10514800FBF72AFC00210C20FBF726FC40F60C019B
:105158000D20FBF721FC4FF42C510E20FBF71CFC13
:10516800B0211E20FBF718FC42F63F310120FBF767
:1051780013FC4FF4C0610220FBF70EFC0021102045
:10518800FBF70AFC46F278011120FBF705FC002129
:105198000520FBF701FC00210620FBF7FDFB4EF67E
:1051A8001C711620FBF7F8FB03211720FBF7F4FB13
:1051B80040F233210720FBF7EFFB00210B20FBF720
:1051C800EBFB00210F20FBF7E7FB00214120FBF759
:1051D800E3FB00214220FBF7DFFB00214820FBF71F
:1051E800DBFB40F23F114920FBF7D6FB00214A20A8
:1051F800FBF7D2FB00214B20FBF7CEFB4FF46F41AE
:105208004420FBF7C9FB00214520FBF7C5FB40F212
:105218003F114620FBF7C0FB40F207713020FBF737
:10522800BBFB4FF401713120FBF7B6FB4FF4017162
:105238003220FBF7B1FB40F202513320FBF7ACFB05
:1052480040F207513420FBF7A7FB4FF401713520DA
:10525800FBF7A2FB4FF401713620FBF79DFB40F2F0
:1052680002513720FBF798FB40F202313A20FBF756
:1052780093FB40F202313B20FBF78EFB00212320F9
:10528800FBF78AFB00212420FBF786FB4FF4004143
:105298002520FBF781FB00214F20FBF77DFB002138
:1052A8004E20FBF779FB00F02DBD614B9B8844F243
:1052B8003152934240F0BE8001210020FBF76CFB85
:1052C8000A2001F08FFB41F228611020FBF764FBF4
:1052D8000E211220FBF760FB40F639211320FBF763
:1052E8005BFB0A2001F07EFB40211120FBF754FBF9
:1052F80050211520FBF750FB0A2001F073FB1E21FB
:105308001220FBF749FB0A2001F06CFB4FF4B15166
:105318001020FBF741FB42F639211320FBF73CFB39
:105328000A2001F05FFB4FF480710120FBF734FB8A
:105338004FF440710220FBF72FFB41F238010320A4
:10534800FBF72AFB40F202210820FBF725FB082186
:105358000A20FBF721FB00213020FBF71DFB40F260
:1053680002413120FBF718FB4FF483713220FBF721
:1053780013FB40F203513320FBF70EFB4FF482710D
:105388003420FBF709FB40F201313520FBF704FB21
:1053980040F207713620FBF7FFFA40F2053137205B
:1053A800FBF7FAFA4FF402713820FBF7F5FA40F6EA
:1053B8000B713920FBF7F0FA02214120FBF7ECFAD8
:1053C8004FF41C516020FBF7E7FA01216120FBF73D
:1053D800E3FA4FF404719020FBF7DEFA4FF485717D
:1053E8009220FBF7D9FA04219320FBF7D5FA4FF462
:1053F8008071A020FBF7D0FA01210720FBF7CCFA37
:1054080021210720FBF7C8FA23210720FBF7C4FA5C
:1054180033210720FBF7C0FA40F233110720FBF7CE
:10542800BBFA0021A020FBF7B7FA00F06BBC00BF65
:105438004C0000205B4B9B8844F23552934240F06D
:10544800B38030211520FBF7A7FA10219A20FBF72B
:10545800A3FA20211120FBF79FFA43F228411020DC
:10546800FBF79AFA02211220FBF796FA41F238016B
:105478001320FBF791FA282001F0B4FA1221122028
:10548800FBF78AFA282001F0ADFA43F220411020F8
:10549800FBF782FA43F238011320FBF77DFA462026
:1054A80001F0A0FA00213020FBF776FA40F2024121
:1054B8003120FBF771FA40F207313220FBF76CFA22
:1054C8004FF441713320FBF767FA04213420FBF7CE
:1054D80063FA40F201413520FBF75EFA40F20771AA
:1054E8003620FBF759FA40F205313720FBF754FA1A
:1054F8004FF4C2613820FBF74FFA4FF4C2613920EC
:10550800FBF74AFA4FF480710120FBF745FA4FF494
:1055180040710220FBF740FA41F230010320FBF70B
:105528003BFA40F608010820FBF736FA08210A2062
:10553800FBF732FA4FF41C516020FBF72DFA0121DA
:105548006120FBF729FA4FF49F719020FBF724FAAA
:105558004FF480719220FBF71FFA4FF4807193206B
:10556800FBF71AFA4FF44051A020FBF715FA102167
:10557800A320FBF711FA01210720FBF70DFA2121DF
:105588000720FBF709FA23210720FBF705FA332147
:105598000720FBF701FA40F233110720FBF7FCF96B
:1055A800B0E300BF4C000020A84B9B8841F6631273
:1055B800934240F0A783E220FBF762F9A44B4FF433
:1055C80080721A61A24B4FF400725A61A14B1D22DE
:1055D800DA609F4B80225A619D4B80221A619C4B56
:1055E8004FF400721A619A4B4FF480721A61984B0B
:1055F8004FF400725A61974B0222DA60944B802272
:105608005A61934B80221A61914B4FF400721A61D0
:105618008F4B4FF480721A618D4B4FF400725A61B0
:105628008C4B0422DA608A4B80225A61884B802294
:105638001A61874B4FF400721A61012001F0D2F908
:10564800E020FBF71DF9824B4FF480721A61804B02
:105658004FF400725A617F4B0122DA607C4B802242
:105668005A617B4B80221A61794B4FF400721A61A0
:105678000A2001F0B7F9E020FBF702F9744B4FF468
:1056880080721A61724B4FF400725A61714B032297
:10569800DA606F4B80225A616D4B80221A616C4B25
:1056A8004FF400721A610C2001F09CF90120FBF7FD
:1056B800E7F80A2001F096F9E620FBF7E1F8644BD9
:1056C8004FF480721A61624B4FF400725A61614B59
:1056D8002F22DA605E4B80225A615D4B80221A616C
:1056E8005B4B4FF400721A61594B4FF480721A6188
:1056F800574B4FF400725A61564BFF22DA60544BF5
:1057080080225A61524B80221A61514B4FF4007229
:105718001A614F4B4FF480721A614D4B4FF400726F
:105728005A614C4BFF22DA60494B80225A61484B40
:1057380080221A61464B4FF400721A61B020FBF7C1
:105748009FF8434B4FF480721A61414B4FF400723B
:105758005A61404B2022DA603D4B80225A613C4B13
:1057680080221A613A4B4FF400721A61384B4FF499
:1057780080721A61364B4FF400725A61354B002221
:10578800DA60334B80225A61314B80221A61304BE8
:105798004FF400721A612E4B4FF480721A612C4B31
:1057A8004FF400725A612B4B0322DA60284B802297
:1057B8005A61274B80221A61254B4FF400721A61F7
:1057C800234B4FF480721A61214B4FF400725A61D7
:1057D800204B40F21F32DA601D4B80225A611C4B6D
:1057E80080221A611A4B4FF400721A61184B4FF459
:1057F80080721A61164B4FF400725A61154B0122E0
:10580800DA60134B80225A61114B80221A61104BC7
:105818004FF400721A610E4B4FF480721A610C4BF0
:105828004FF400725A610B4B40F2DF12DA60084BFA
:1058380080225A61064B80221A61054B4FF4007290
:105848001A61034B4FF4807206E000BF4C00002041
:1058580000100140000C01401A61A34B4FF4007284
:105868005A61A24B0022DA609F4B80225A619E4BFC
:1058780080221A619C4B4FF400721A61B420FAF727
:10588800FFFF994B4FF480721A61974B4FF40072E7
:105898005A61964B0422DA60934B80225A61924BEC
:1058A80080221A61904B4FF400721A618E4B4FF4AC
:1058B80080721A618C4B4FF400725A618B4B40F224
:1058C8001F42DA60884B80225A61874B80221A6116
:1058D800854B4FF400721A61834B4FF480721A6142
:1058E800814B4FF400725A61804B0022DA607E4B84
:1058F80080225A617C4B80221A617B4B4FF40072E4
:105908001A61794B4FF480721A61774B4FF4007229
:105918005A61764B2E22DA60734B80225A61724BA1
:1059280080221A61704B4FF400721A616E4B4FF46B
:1059380080721A616C4B4FF400725A616B4B0022F3
:10594800DA60694B80225A61674B80221A61664B84
:105958004FF400721A61644B4FF480721A61624B03
:105968004FF400725A61614B0022DA605E4B80226C
:105978005A615D4B80221A615B4B4FF400721A61C9
:10598800594B4FF480721A61574B4FF400725A61A9
:10599800564B0022DA60544B80225A61524B8022C7
:1059A8001A61514B4FF400721A614F4B4FF48072D9
:1059B8001A614D4B4FF400725A614C4B0022DA6069
:1059C800494B80225A61484B80221A61464B4FF45A
:1059D80000721A61B620FAF753FF434B4FF48072F6
:1059E8001A61414B4FF400725A61404B0222DA604F
:1059F8003D4B80225A613C4B80221A613A4B4FF44E
:105A080000721A61384B4FF480721A61364B4FF4AA
:105A180000725A61354B4FF40372DA60324B8022C0
:105A28005A61314B80221A612F4B4FF400721A6170
:105A38002D4B4FF480721A612B4B4FF400725A6150
:105A48002A4B0022DA60284B80225A61264B80229A
:105A58001A61254B4FF400721A61234B4FF4807280
:105A68001A61214B4FF400725A61204B1722DA60F9
:105A78001D4B80225A611C4B80221A611A4B4FF42D
:105A880000721A61184B4FF480721A61164B4FF46A
:105A980000725A61154B1522DA60134B80225A6145
:105AA800114B80221A61104B4FF400721A610E4B91
:105AB8004FF480721A610C4B4FF400725A610B4B11
:105AC8000022DA60084B80225A61074B80221A6153
